:020000040800F2
:1000000068790020590200089D6F000871510008AE
:100010001F6B0008F9350008C788000800000000C1
:10002000000000000000000000000000A101000826
:100030007548000800000000F5010008F97A000882
:1000400073020008730200087302000873020008BC
:1000500073020008730200087302000873020008AC
:10006000730200087302000873020008730200089C
:10007000730200087302000873020008730200088C
:10008000730200087302000873020008730200087C
:10009000FD360008730200087302000873020008AE
:1000A000730200087302000873020008730200085C
:1000B00073020008717B00089D7B00087302000832
:1000C000730200087302000873020008730200083C
:1000D000730200081D8200088983000891840008CB
:1000E000730200087302000873020008730200081C
:1000F000730200087302000873020008730200080C
:100100007302000873020008C97B0008730200082C
:1001100073020008258000087302000873020008BB
:1001200073020008730200087302000873020008DB
:1001300073020008730200087302000873020008CB
:1001400073020008AD39000873020008730200084A
:1001500073020008730200087302000873020008AB
:10016000730200087302000873020008730200089B
:10017000730200087302000873020008730200088B
:100180007302000873020008DFF810D000F024FFAB
:1001900000480047EDAC0008AFF30080687900200C
:1001A0002A4B19680868B0E8F04F80F30988BFF35C
:1001B0006F8F4FF0000080F311887047000000003F
:1001C00006480068006880F3088862B661B6BFF32D
:1001D0004F8FBFF36F8F00DF00BF00BF08ED00E05F
:1001E000DFF80C00016841F470010160704700BF46
:1001F00088ED00E0EFF30980BFF36F8F134B1A68AF
:100200001EF0100F08BF20ED108A20E9F04F10609B
:1002100008B44FF0500080F31188BFF34F8FBFF345
:100220006F8F0CF05BF94FF0000080F3118808BC71
:1002300019680868B0E8F04F1EF0100F08BFB0EC66
:10024000108A80F30988BFF36F8F70474800002041
:10025000EFF30580704700000648804706480047D6
:10026000FEE7FEE7FEE7FEE7FEE7FEE7FEE7FEE766
:10027000FEE7FEE7097B0008890100080180428053
:10028000436070472DE9F34F84B0049840680090B4
:10029000486801900498B0F800E04588DFEDFE0A58
:1002A00000200290B0EE600AAE4506D10888498869
:1002B000884204BF7146864504D06FF0020006B044
:1002C000BDE8F08F01985FEA010C18BFB7EE001A85
:1002D0003DD000BFBEEB0C0117D0B1F1004F80F054
:1002E0001F82002911DD021F11F0010F1CBFC2ED9A
:1002F000010A121D4B1006D0C2ED010AC2ED020A1E
:1003000008325B1EF8D100EB8100BCF10102A0ECC9
:10031000011A19D0B2F1004F80F00882002A13DDD3
:10032000031F12F0010F1CBFC3ED010A1B1D51106A
:1003300008D000BFC3ED010AC3ED020A491E03F154
:100340000803F7D100EB8200BCF1010CC2D14FF0E1
:1003500000080395002D14BFB0EE602A002000F0C5
:10036000BF8100BF009908FB05F001EB800B0199EC
:10037000DBED002A01EB80000346F0EE421AC64591
:1003800052D9AEEB0802ABEB850112F0010F17D08A
:1003900001EB850191ED000AB5EEC00AF1EE10FA0D
:1003A00007DDB4EEE10AF1EE10FA09DDF0EE401AD5
:1003B00006E0B1EE400AF4EEC01AF1EE10FAF5D301
:1003C000521031D001EB850C9CED000AB5EEC00A4D
:1003D000F1EE10FA05DDB4EEE10AF1EE10FA09DDF6
:1003E00006E0B1EE400AF4EEC01AF1EE10FA01D2C6
:1003F000F0EE401A01EBC50191ED000AB5EEC00A1E
:10040000F1EE10FA05DDB4EEE10AF1EE10FA09DDC5
:1004100006E0B1EE400AF4EEC01AF1EE10FA01D295
:10042000F0EE401A521ECDD1F5EEC01AF1EE10FAE0
:1004300000F07381F5EEC02A0126F1EE10FA009962
:10044000D4BFB1EE620AB0EE620AB4EE610AF1EE18
:1004500010FA1CBFAEEB0802B2F1010C47D005FB4D
:1004600008F201EB820292ED001A00BFB0EE410AE1
:1004700005FB06F4B5EEC00A00EB8404F1EE10FAB9
:10048000CCBFF0EE400AF1EE400AF4EE610AF1EE64
:1004900010FA28D1B5EB080C11D0BCF1004F7DD279
:1004A000BCF1000F0BDD00BF92ED000AD1ED000A98
:1004B000BCF1010CE2EC010AA1EC010AF4D1290023
:1004C0000ED0B1F1004F6AD2002909DD94ED000A87
:1004D000D0ED000A491EE4EC010AA0EC010AF5D1B6
:1004E000012002900BE0761CBCF1010CBED10298F9
:1004F000012804D0F5EEC02AF1EE10FA7ED09BED73
:10050000000AB5EB08009A465946064622D0B0F1DB
:10051000004F74D200281DDD091F10F0010F06D016
:10052000F0EE400A80EEA01A81ED011A091D40107C
:1005300010D000BFD1ED010A401E80EE801A81ED7F
:10054000011A91ED021AC1EE000AC1ED020A01F191
:100550000801EFD1280026D0B0F1004F7ED200284C
:1005600021DDAAF1040110F0010F06D0D1ED010A3E
:1005700080EE801A81ED011A091D401013D000BFD2
:10058000D1ED010A401E80EE801A81ED011AD1EDF5
:10059000020A80EE801A81ED021A01E0CBE0D6E07B
:1005A00001F10801ECD1DDE900124FF000095FEA2A
:1005B0000E0773D0C14504BF01EB860102EB850233
:1005C00074D091ED000ADC465046330035D01C460D
:1005D000B6F1004F7ED2002C2FDD0B1FABF1040CC7
:1005E00016F0010F0FD0F0EE400ADCED011AB0EE6C
:1005F000601A00EEE11A83ED011A01E08DE0B1E02E
:100600001B1D0CF1040C741015D000BFD3ED010AB2
:100610009CED011A40EE410AC3ED010AD3ED020A36
:100620009CED021A0CF1080C40EE410AC3ED020ADF
:100630000833641EEAD101EB86012B0036D0B3F1FA
:10064000004F72D2002B31DDA2F1040CAAF104009C
:1006500013F0010F0CD0DCED010A00E08BE090ED0F
:10066000011A001D40EE410ACCED010A0CF1040C08
:100670005C1019D0DCED010A90ED011A40EE410A40
:10068000CCED010ADCED020A90ED021A083040EED2
:10069000410ACCED020A03E0000000000DE005E095
:1006A000641E0CF1080CE5D102EB830201EB88011A
:1006B0007F1E09F101097FF47DAF009808F1010860
:1006C000001D00900398401E03907FF44BAE0299EA
:1006D000012900E058E004BF06B0BDE8F08F00BF7C
:1006E000B5EEC00AF1EE10FA7FF4E9AD04990EFB05
:1006F00005F3002B4A684FF000010BD902EB810C87
:100700009CED000AB5EEC00AF1EE10FA02D1491CC8
:100710008B42F3D88B427FF4D2AD6FF00400CEE56C
:10072000E0EC010A491EFBD1EFE538E0E0EC010AFC
:10073000521EFBD108E692ED000AD1ED000ABCF191
:10074000010CE2EC010AA1EC010AF4D1B7E694ED48
:10075000000AD0ED000A491EE4EC010AA0EC010AEF
:10076000F5D1BDE6D1ED000A401E80EE801AA1EC65
:10077000011AF7D1EEE6D3ED000A401E80EE801A92
:10078000A3EC011AF7D10EE7BCEC011AD1ED000A77
:100790005B1E40EE410AE1EC010AF5D14DE7B0ECF9
:1007A000011AD2ED000A5B1E40EE410AE2EC010A9A
:1007B000F5D17BE72DE9F04F82B04668536801938D
:1007C000058847884B88002000900888874201BF31
:1007D000B2F800C06545528893421EBF6FF0020018
:1007E00002B0BDE8F08F9FED412A4FEA970EC7F3A4
:1007F000400B00BFDDE9000202EB800A4A68984620
:100800004FF00009B0EE420AB4465FEA0E0025D070
:1008100092ED001ADCED001A02EB8302DCED010A16
:1008200001EE810A92ED001A02EB8302401ED2ED26
:10083000001A02EB830200EE810A9CED021ADCED45
:10084000030A00040CF1100C000C01EE210A92EDD9
:10085000001A02EB830200EE810AD9D117F00300DF
:1008600026D0ACF10404A2EB830210F0010F08D0F3
:1008700002EB8302D4ED010A92ED001A241D00EE72
:10088000810A5FEA0B0013D002EB830CD4ED010A5E
:100890009CED001A02EBC302401E00EE810AD4ED6B
:1008A000020A92ED001A04F1080400EE810AEBD16D
:1008B00009F10100AAEC010A1FFA80F9486800EB6F
:1008C0008902A8F101001FFA80F8B8F1000F99D150
:1008D000009806EB8706184480B20090681E050455
:1008E0002D0C87D102B00020BDE8F08F0000000081
:1008F00040EA01039B0703D009E008C9121F08C0A2
:10090000042AFAD203E011F8013B00F8013B521E21
:10091000F9D27047D2B201E000F8012B491EFBD298
:1009200070470022F6E710B513460A4604461946FA
:10093000FFF7F0FF204610BD2DE9FE4F804681EA0B
:100940000300C00F0C46009021F0004123F0004549
:10095000B8EB0200A94105D24046214690461C460C
:100960000B46024623F00040104347D0270DC7F343
:100970000A00C3F30A510290401A019040286BDA32
:10098000C3F3130040F4801B0098924620B100236B
:10099000D2EB030A63EB0B0B01985946C0F14002FE
:1009A000504600F003FA06460D4650465946019A55
:1009B00000F01BFA10EB08006141002487EA115295
:1009C00084EAE7731A4340D0009A62B3019A012A7D
:1009D0004FEA075215DC001B61EB02014FF00042A9
:1009E00002EA0752CDE90042001C41F5801132466F
:1009F0002B4600F052FA03B0BDE8F08F4046214686
:100A0000F9E7001B61EB0201001C41F5801300189F
:100A10005B412018A2F5001747EB030140EAD570AF
:100A2000B6196D4111E06D084FEA360645EAC0750A
:100A30004FEA0752001B61EB0201001C41F58011D7
:100A400049084FEA30000019514132462B4603B0A5
:100A5000BDE8F04F00F012BA0098012240000023D8
:100A6000D0EB020263EBE073009821464FEAE0749A
:100A7000B8EB000061EB0401E9E783F000435BE7BA
:100A800081F0004158E72DE9FE4F81EA030404F0AC
:100A9000004421F0004100944FF0000B23F000438C
:100AA00050EA01045ED052EA03045BD0C3F30A5457
:100AB000C1F30A552C44A4F2F3340194A0FB025470
:100AC000C1F3130141F48011C3F3130343F4801302
:100AD00001FB024400FB034E840A970A44EA815456
:100AE00047EA8357A4FB076802958D0A05FB078533
:100AF0004FEA932C04FB0C542705029D4FEA06583D
:100B000047EA1637B5EB08056EEB070C870E920E19
:100B100047EA811742EA8312A7FB0201B6EB0B01F9
:100B200064EB00042B0D43EA0C335E1844EB1C50BD
:100B3000DA465146E7FB0201C5F313044FEA0B33D3
:100B400043EA14534FEA0432019C43EA0603A4F13A
:100B50000C040294009CCDE900B400F09EF903B0AF
:100B6000BDE8F08F00200146F9E72DE9F04D81EA5C
:100B7000030404F0004B21F0004514464FF0000A36
:100B800023F0004150EA050220D054EA01021DD0B2
:100B9000C5F30A570246C5F31303C1F31300C1F3AB
:100BA0000A5640F4801543F48013A7EB0608101B87
:100BB000D64608F2FD3873EB050002D308F10108B0
:100BC00001E092185B41B8F1000F03DA0020014602
:100BD000BDE8F08D00204FF48011064684460EE0FB
:100BE000171B73EB050705D3121B63EB05030643C5
:100BF0004CEA010C49084FEA300092185B4150EA78
:100C00000107EDD152EA030012D082EA040083EA20
:100C10000501084305D0101BAB4106D20122002379
:100C200006E000224FF0004302E06FF00102531093
:100C30001AEB06004CEB085110EB0A0041EB0B01DC
:100C4000BDE8F04D00F01AB90EB5C10F80EAE070B2
:100C50000844CA07002140F233438DE80E000A46DB
:100C60000B4600F01AF903B000BD0EB540F2334157
:100C700002910021CDE900110A460B4600F00DF962
:100C800003B000BD70B5C1F30A5201F00045002465
:100C9000C1F3130140F2FF3341F480119A4201DAAB
:100CA000002070BD40F233439A42A2F2334203DC8B
:100CB000524200F08AF800E090402C43F1D04042CC
:100CC00070BD00F0004230F000400AD0C10D01F5C7
:100CD0006071C0F3160042EA0151C2084007114397
:100CE000704700200146704730B5041E71F10004C2
:100CF00004DB4FF00044404264EB0101141E73F129
:100D0000000405DB1C464FF00043524263EB040332
:100D10008B4208BF824230BD30B5041E71F1000421
:100D200004DB4FF00044404264EB0101141E73F1F8
:100D3000000405DB1C464FF00043524263EB040302
:100D4000994208BF904230BD01F0004330B421F019
:100D5000004150EA010206D00A0DA2F56072C1F30B
:100D60001301002A02DC30BC00207047440F44EA23
:100D7000C104C100E01830BC00EBC25000F047B81D
:100D800030B50B46014600202022012409E021FA5B
:100D900002F59D4205D303FA02F5491B04FA02F558
:100DA0002844151EA2F10102F1DC30BD202A04DB2B
:100DB000203A00FA02F1002070479140C2F120036E
:100DC00020FA03F3194390407047202A04DB203AAD
:100DD00021FA02F00021704721FA02F3D040C2F15B
:100DE00020029140084319467047202A06DBCB17A2
:100DF000203A41FA02F043EAE07306E041FA02F3D6
:100E0000D040C2F1200291400843194670470029A2
:100E1000A8BF7047401C490008BF20F00100704780
:100E200010B4B0FA80FC00FA0CF050EA010404BFE0
:100E300010BC704749B1CCF1200421FA04F411FA36
:100E40000CF118BF012121430843A3EB0C01CB1D7A
:100E50004FEA00614FEA102042BF002010BC7047EB
:100E600000EBC35010440029A4BF10BC7047401CC5
:100E7000490008BF20F0010010BC704710B5141ED7
:100E800073F1000408DA401C41F1000192185B4143
:100E90001A4301D120F0010010BD2DE9F04D92461A
:100EA0009B4611B1B1FA81F202E0B0FA80F2203231
:100EB0009046FFF77BFF04460F4640EA0A0041EAEE
:100EC0000B0153465A46084313D0114653EA01001A
:100ED00019D0C8F140025046FFF777FF05460E468D
:100EE000504659464246FFF761FF084305D00120AE
:100EF00004E020463946BDE8F08D0020054346EA6F
:100F0000E0762C4337430A986305E40AA0EB080017
:100F10000022FD0A44EA47540A3002D50020014667
:100F2000E9E7010510196941DDE908450019694142
:100F3000BDE8F04DA2E72DE9F04D00231A461B1A3B
:100F40008A4103DB00200146BDE8F08DC1F30A525F
:100F5000C1F3130141F480154FF0000BD10702D10A
:100F600000186D41521E0027044640F2FF1138461A
:100F700001EB620A3E468046024600204FF4801193
:100F8000FFF723FFC2197141BB1846EB0100B4EB18
:100F9000030C75EB000C04D3E41A65EB000517464F
:100FA0000E46241908F101006D4180463428E3DD26
:100FB000F91946EB0600091BA84103D24FF0FF3296
:100FC000134601E0002213461BEB070046EB0A51D3
:100FD000BDE8F04DFFF752BF064C074D06E0E06854
:100FE00040F0010394E8070098471034AC42F6D370
:100FF000FFF7CEF8F0DA000810DB000870B58C18A7
:1010000010F8015B15F0070301D110F8013B2A111C
:1010100006D110F8012B03E010F8016B01F8016B09
:101020005B1EF9D12B0705D40023521E0DD401F805
:10103000013BFAE710F8013BCB1A921C03E013F8CE
:10104000015B01F8015B521EF9D5A142D8D3002003
:1010500070BD000010B500200F4908600F480068FF
:1010600020F003000D4908600846006840F00100C8
:10107000086000200A49C1F88002022009F002FC41
:10108000012005490860022009F0FCFB0020054909
:10109000C1F8800210BD0000800241420000024001
:1010A00000004042000041421CB50121084606F004
:1010B000E5F80121042006F0E1F8012000908DF808
:1010C000040000208DF8060003208DF805000120A3
:1010D0008DF8070069460D4803F012FF01200090CB
:1010E0008DF8040000208DF8060003208DF805001F
:1010F00001208DF807006946054803F001FF012033
:10110000044908600449C1F880021CBD0000024087
:1011100000080240800241420000404210B5002019
:101120000F4908600F48006820F003000D4908606F
:101130000846006840F00100086001200A49C1F833
:101140008002022009F09EFB012005490860022070
:1011500009F098FB00200549C1F8800210BD00008D
:101160008002414200000240000040420000414233
:1011700070B5054600241848006820F003001649A1
:10118000086008460068086000261BE0002013493C
:101190000860022009F076FB01201149C1F88002A5
:1011A000042009F06FFB6006040E042009F06AFBBE
:1011B0000C48006808B1601CC4B2012009F062FB51
:1011C000701CC6B2082EE1DB15B9FFF7A7FF01E0DE
:1011D000FFF740FF204670BD000002408002414200
:1011E000000041420002404270B5044614480068C5
:1011F00020F00300124908600846006840F0010032
:10120000086000200F490860002516E0E0090E493B
:1012100008606006040E022009F034FB01200B492F
:10122000C1F88002022009F02DFB0020054908606A
:10123000022009F027FB681CC5B2082DE6DB70BD53
:1012400000000240800241428002404200004142D0
:1012500010B50F48006820F003000D4908600846EB
:10126000006840F00100086001200A4908600A494E
:10127000C1F88002042009F005FB00200549086040
:10128000042009F0FFFA00200349C1F8800210BDD4
:1012900000000240800240420000414210B50F4869
:1012A000006820F003000D4908600846006840F01F
:1012B0000100086000200A4908600A49C1F880025C
:1012C000042009F0DFFA0120054908600549C1F84A
:1012D0008002042009F0D6FA10BD00000000024090
:1012E000800241420000404210B5002413480068CB
:1012F00020F00300114908600846006808600120DA
:101300000F490860022009F0BDFA01200D49C1F81B
:101310008002022009F0B6FA07E0601CC4B2FA2C81
:1013200003DDFFF7BBFF012010BD054880380068D2
:101330000028F2D10449086000BFF5E70000024030
:1013400080024042000041428002414270B50546A1
:101350000E461446FFF77CFF002141EA4501C8B262
:10136000FFF742FFFFF7C0FF3046FFF73DFFFFF7F3
:10137000BBFFFFF76DFF012101EB4501C8B2FFF78D
:1013800033FFFFF7B1FF0120FFF7F2FE04F8010B76
:101390000020FFF7EDFE2070FFF780FF012070BDF9
:1013A00010B500200F4908600F48006820F00300C6
:1013B0000D4908600846006840F001000860002000
:1013C0000A49C1F88002022009F05CFA01200549AF
:1013D0000860022009F056FA00200549C1F884028D
:1013E00010BD000084024142000002400000404263
:1013F000000041421CB50121084605F03FFF0121D4
:10140000042005F03BFF012000908DF8040000202F
:101410008DF8060003208DF8050001208DF80700E7
:1014200069460E4803F06CFD0220009001208DF803
:10143000040000208DF8060003208DF8050001202F
:101440008DF807006946064803F05AFD012005495A
:1014500008600549C1F880021CBD00000000024080
:1014600000080240840241420000404210B50020C2
:101470000F4908600F48006820F003000D4908601C
:101480000846006840F00100086001200A49C1F8E0
:101490008002022009F0F6F90120054908600220C7
:1014A00009F0F0F900200549C1F8840210BD0000E0
:1014B00084024142000002400000404200004142DC
:1014C00070B5054600241848006820F0030016494E
:1014D000086008460068086000261BE000201349E9
:1014E0000860022009F0CEF901201149C1F88402F8
:1014F000042009F0C7F96006040E042009F0C2F9BF
:101500000C48006808B1601CC4B2012009F0BAF9A7
:10151000701CC6B2082EE1DB15B9FFF7A7FF01E08A
:10152000FFF73EFF204670BD0000024084024142AA
:10153000000041420002404270B504461448006871
:1015400020F00300124908600846006840F00100DE
:10155000086000200F490860002516E0E0090E49E8
:1015600008606006040E022009F08CF901200B4986
:10157000C1F88402022009F085F9002005490860BD
:10158000022009F07FF9681CC5B2082DE6DB70BDAA
:101590000000024084024142800240420000414279
:1015A00010B50F48006820F003000D490860084698
:1015B000006840F00100086001200A4908600A49FB
:1015C000C1F88402042009F05DF900200549086093
:1015D000042009F057F900200349C1F8840210BD26
:1015E00000000240800240420000414210B50F4816
:1015F000006820F003000D4908600846006840F0CC
:101600000100086000200A4908600A49C1F8800208
:10161000042009F037F90120054908600549C1F89F
:101620008002042009F02EF910BD000000000240E5
:10163000840241420000404210B500241348006873
:1016400020F0030011490860084600680860012086
:101650000F490860022009F015F901200D49C1F871
:101660008402022009F00EF907E0601CC4B2FA2CD3
:1016700003DDFFF7BBFF012010BD0548803800687F
:101680000028F2D10449086000BFF5E700000240DD
:1016900080024042000041428402414270B505464A
:1016A0000E461446FFF77CFF002141EA4501C8B20F
:1016B000FFF742FFFFF7C0FF3046FFF73DFFFFF7A0
:1016C000BBFFFFF76DFF012101EB4501C8B2FFF73A
:1016D00033FFFFF7B1FF0120FFF7F2FE04F8010B23
:1016E0000020FFF7EDFE2070FFF780FF012070BDA6
:1016F00010B500200F4908600F48006820F0030073
:101700000D4908600846006840F0010008600020AC
:101710000A49C1F88002022009F0B4F80120054905
:101720000860022009F0AEF800200549C1F88802DF
:1017300010BD00008802414200000240000040420B
:10174000000041421CB50121084605F097FD01212A
:10175000042005F093FD012000908DF80400002086
:101760008DF8060003208DF8050001208DF8070094
:1017700069460E4803F0C4FB0420009001208DF858
:10178000040000208DF8060003208DF805000120DC
:101790008DF807006946064803F0B2FB01200549B1
:1017A00008600549C1F880021CBD0000000002402D
:1017B00000080240880241420000404210B500206B
:1017C0000F4908600F48006820F003000D490860C9
:1017D0000846006840F00100086001200A49C1F88D
:1017E0008002022009F04EF801200549086002201D
:1017F00009F048F800200549C1F8880210BD000032
:101800008802414200000240000040420000414284
:1018100070B5054600241848006820F003001649FA
:10182000086008460068086000261BE00020134995
:101830000860022009F026F801201149C1F8880249
:10184000042009F01FF86006040E042009F01AF8BD
:101850000C48006808B1601CC4B2012009F012F8FD
:10186000701CC6B2082EE1DB15B9FFF7A7FF01E037
:10187000FFF73EFF204670BD000002408802414253
:10188000000041420002404270B50446144800681E
:1018900020F00300124908600846006840F001008B
:1018A000086000200F490860002516E0E0090E4995
:1018B00008606006040E022008F0E4FF01200B49D6
:1018C000C1F88802022008F0DDFF00200549086009
:1018D000022008F0D7FF681CC5B2082DE6DB70BDFA
:1018E0000000024088024142800240420000414222
:1018F00010B50F48006820F003000D490860084645
:10190000006840F00100086001200A4908600A49A7
:10191000C1F88802042008F0B5FF002005490860DE
:10192000042008F0AFFF00200349C1F8880210BD71
:1019300000000240800240420000414210B50F48C2
:10194000006820F003000D4908600846006840F078
:101950000100086000200A4908600A49C1F88002B5
:10196000042008F08FFF0120054908600549C1F8EF
:101970008002042008F086FF10BD00000000024035
:10198000880241420000404210B50024134800681C
:1019900020F0030011490860084600680860012033
:1019A0000F490860022008F06DFF01200D49C1F8C1
:1019B0008802022008F066FF07E0601CC4B2FA2C1F
:1019C00003DDFFF7BBFF012010BD0548803800682C
:1019D0000028F2D10449086000BFF5E7000002408A
:1019E00080024042000041428802414270B50546F3
:1019F0000E461446FFF77CFF002141EA4501C8B2BC
:101A0000FFF742FFFFF7C0FF3046FFF73DFFFFF74C
:101A1000BBFFFFF76DFF012101EB4501C8B2FFF7E6
:101A200033FFFFF7B1FF0120FFF7F2FE04F8010BCF
:101A30000020FFF7EDFE2070FFF780FF012070BD52
:101A400010B500200F4908600F48006820F003001F
:101A50000D4908600846006840F001000860002059
:101A60000A49C1F88002022008F00CFF0120054954
:101A70000860022008F006FF00200549C1F88C022A
:101A800010BD00008C0241420000024000004042B4
:101A9000000041421CB50121084605F0EFFB012181
:101AA000042005F0EBFB012000908DF804000020DD
:101AB0008DF8060003208DF8050001208DF8070041
:101AC00069460E4803F01CFA0820009001208DF8AA
:101AD000040000208DF8060003208DF80500012089
:101AE0008DF807006946064803F00AFA0120054907
:101AF00008600549C1F880021CBD000000000240DA
:101B0000000802408C0241420000404210B5002013
:101B10000F4908600F48006820F003000D49086075
:101B20000846006840F00100086001200A49C1F839
:101B30008002022008F0A6FE01200549086002206C
:101B400008F0A0FE00200549C1F88C0210BD00007D
:101B50008C0241420000024000004042000041422D
:101B600070B5054600241848006820F003001649A7
:101B7000086008460068086000261BE00020134942
:101B80000860022008F07EFE01201149C1F88C0295
:101B9000042008F077FE6006040E042008F072FEB0
:101BA0000C48006808B1601CC4B2012008F06AFE4D
:101BB000701CC6B2082EE1DB15B9FFF7A7FF01E0E4
:101BC000FFF73EFF204670BD000002408C024142FC
:101BD000000041420002404270B5044614480068CB
:101BE00020F00300124908600846006840F0010038
:101BF000086000200F490860002516E0E0090E4942
:101C000008606006040E022008F03CFE01200B492B
:101C1000C1F88C02022008F035FE0020054908605A
:101C2000022008F02FFE681CC5B2082DE6DB70BD4F
:101C3000000002408C0241428002404200004142CA
:101C400010B50F48006820F003000D4908600846F1
:101C5000006840F00100086001200A4908600A4954
:101C6000C1F88C02042008F00DFE00200549086030
:101C7000042008F007FE00200349C1F88C0210BDC3
:101C800000000240800240420000414210B50F486F
:101C9000006820F003000D4908600846006840F025
:101CA0000100086000200A4908600A49C1F8800262
:101CB000042008F0E7FD0120054908600549C1F846
:101CC0008002042008F0DEFD10BD0000000002408C
:101CD0008C0241420000404210B5002413480068C5
:101CE00020F00300114908600846006808600120E0
:101CF0000F490860022008F0C5FD01200D49C1F818
:101D00008C02022008F0BEFD07E0601CC4B2FA2C71
:101D100003DDFFF7BBFF012010BD054880380068D8
:101D20000028F2D10449086000BFF5E70000024036
:101D300080024042000041428C02414270B505469B
:101D40000E461446FFF77CFF002141EA4501C8B268
:101D5000FFF742FFFFF7C0FF3046FFF73DFFFFF7F9
:101D6000BBFFFFF76DFF012101EB4501C8B2FFF793
:101D700033FFFFF7B1FF0120FFF7F2FE04F8010B7C
:101D80000020FFF7EDFE2070FFF780FF012070BDFF
:101D900030B52DED0C8BD9B09FEDA90AF0EE408A3D
:101DA0009FEDA70AB0EE409A9FEDA50AF0EE409A8B
:101DB000002462E0A34A911E881E03F08EFDA14814
:101DC000001FB0F9000000EE100AB8EEC00ADFED07
:101DD0009E0A80EE201AB0EE000A21EE000ADFED26
:101DE0009B0A20EE200A8DED250A9648001FB0F9C7
:101DF000020000EE100AF8EEC00A9FED931A80EE82
:101E0000810AF0EE000A20EE200ADFED900A20EEB3
:101E1000200A8DED240A8B48001FB0F9040000EE63
:101E2000100AF8EEC00A9FED881A80EE810AF0EEE3
:101E3000000A20EE200ADFED850A20EE200A8DED53
:101E4000230A23AA24A925A808F0A6F99DED250AAE
:101E500038EE800AF0EE408A9DED240A39EE000A41
:101E6000B0EE409A9DED230A39EE800AF0EE409ADA
:101E7000032008F069FF601CC4B2642C9ADB9FED5C
:101E8000740AC8EE800ACDED250A9FED710AC9EEED
:101E9000000ACDED240A9FED6E0AC9EE800ACDED51
:101EA000230ADDED250A60EEA00A9DED241ADDED82
:101EB000241A41EE210A9DED231ADDED231A41EE8D
:101EC000210AB0EE600A08F04DFFB0EE408A9DEDA9
:101ED000250AC0EE080A10EE905A2846FEF7F1FED9
:101EE00041EC1B0BB0EE4B0AF0EE6B0A06F018FD4E
:101EF000B0EE40AAF0EE60AA9FED560B53EC102B0B
:101F000051EC1A0BFEF7BFFD559154909DED230A3D
:101F1000B1EE400A10EE100AFEF7D3FE41EC1C0BA6
:101F20009DED240AB1EE400A10EE100AFEF7C9FE3C
:101F300041EC1D0BB0EE4C1AF0EE6C1AB0EE4D0AEF
:101F4000F0EE6D0A07F008F8B0EE40BAF0EE60BAB5
:101F50009FED400B53EC102B51EC1B0BFEF793FD48
:101F600041EC1A0B9FED3D0B53EC102BFEF785FD5A
:101F7000539152909FED3B0B8DED560B9DED562BE3
:101F80009DED541B9DED520B10A801F0CDF8482299
:101F900010A940A8FEF7ACFC402242A96846FEF713
:101FA000A7FC10A8419B409A04F088FD482210A984
:101FB0002EA8FEF79DFC382232A96846FEF798FC51
:101FC0002EA80FC803F060FE8DED260B8DED281BAB
:101FD0008DED2A2B8DED2C3B9DED261BB0EE410A9D
:101FE000F0EE610A51EC100BFEF7AEFE1F490860DF
:101FF0009DED281BB0EE410AF0EE610A51EC100B8A
:10200000FEF7A2FE1A4908609DED2A1BB0EE410AB8
:10201000F0EE610A51EC100BFEF796FE15490860D0
:102020009DED2C1BB0EE410AF0EE610A51EC100B55
:10203000FEF78AFE1049086059B0BDEC0C8B30BD2C
:102040000000000038640020000000470AE81C413E
:102050000000C84200000000DCA54C400000000069
:1020600000806640000000000000000084010020A5
:10207000880100208C010020900100200EB52A4A22
:10208000911E881E03F029FC2748001FB0F90000AC
:1020900000EE100AB8EEC00ADFED240A80EE201A26
:1020A000B0EE000A21EE000ADFED210A20EE200A40
:1020B0008DED020A1C48001FB0F9020000EE100A64
:1020C000B8EEC00A9FED191AC0EE010AB0EE000A80
:1020D00020EE800ADFED160A20EE200A8DED010ABF
:1020E0001148001FB0F9040000EE100AB8EEC00A53
:1020F0009FED0E1AC0EE010AB0EE000A20EE800A33
:10210000DFED0B0A20EE200A8DED000A6A4601A9D8
:1021100002A808F041F89DED001ADDED010A9DEDE1
:10212000020A00F06FFF0EBD386400200000004777
:102130000AE81C4100B5B5B0FE4890ED000A20EE5B
:10214000000A8DED1F0A90ED000AFB48D0ED000A51
:1021500020EE200A8DED1E0AF64890ED000AF748A1
:10216000D0ED000A20EE200A8DED1D0AF14890ED19
:10217000000AF348D0ED000A20EE200A8DED1C0A7B
:10218000ED4890ED000A20EE000A8DED1B0A90ED5F
:10219000000AEA48D0ED000A20EE200A8DED1A0A66
:1021A000E54890ED000AE648D0ED000A20EE200A4E
:1021B0008DED190AE14890ED000A20EE000A8DED40
:1021C000180A90ED000ADE48D0ED000A20EE200A41
:1021D0008DED170A90ED000A20EE000A8DED160A2B
:1021E000D84890ED040A8DED150A90ED050A8DEDA5
:1021F000140A90ED060A8DED130A90ED000A8DED9C
:10220000120A90ED010A8DED110A90ED020A8DED92
:10221000100A90ED070A8DED0F0A90ED080A8DED7A
:102220000E0A90ED090A8DED0D0A02F031FFC64845
:1022300080ED000BC54890ED000B53EC102BC2480D
:1022400090ED000B51EC100BFEF717FCCDE90A01E5
:102250009DED0A0B51EC100BFEF776FD00EE100A17
:102260009FEDBB1AC0EE010ACDED0C0A0C98FEF7EB
:1022700028FDCDE92401B44890ED000BB34880ED72
:10228000000B9DED120A20EE000ADDED110A00EEB2
:10229000A00ADDED100A00EEA00A8DED0C0A9DEDFE
:1022A0000C0A08F08FFC8DED340A9DED120ADDED6D
:1022B000340A20EE200A8DED120A9DED110ADDEDA3
:1022C000340A20EE200A8DED110A9DED100ADDED95
:1022D000340A20EE200A8DED100A9DED0F0A20EE43
:1022E000000ADDED0E0A00EEA00ADDED0D0A00EE9B
:1022F000A00A8DED0C0A9DED0C0A08F063FC8DED33
:10230000340A9DED0F0ADDED340A20EE200A8DED32
:102310000F0A9DED0E0ADDED340A20EE200A8DED48
:102320000E0A9DED0D0ADDED340A20EE200A8DED3A
:102330000D0A9DED150ADFED870A20EE200A8DEDCE
:10234000150A9DED140ADFED830A20EE200A8DEDBB
:10235000140A9DED130ADFED7F0A20EE200A8DEDB1
:10236000130A9DED150ADFED7C0A20EE200A8DEDA3
:10237000150A9DED140ADFED780A20EE200A8DED96
:10238000140A9DED130ADFED740A20EE200A8DED8C
:10239000130A1598FEF795FCCDE908019DED080B91
:1023A00006F03EFF8DED0A0B9FED6C0B53EC102BEE
:1023B0009DED0A0B51EC100BFEF796FC03D29FED3E
:1023C000690A8DED150A1498FEF77BFCCDE908012A
:1023D0009DED080B06F024FF8DED0A0B9FED5F0BC2
:1023E00053EC102B9DED0A0B51EC100BFEF77CFC0F
:1023F00003D29FED5C0A8DED140A1398FEF761FC81
:10240000CDE908019DED080B06F00AFF8DED0A0BE2
:102410009FED520B53EC102B9DED0A0B51EC100B62
:10242000FEF762FC03D29FED4F0A8DED130A9DED7E
:102430000F0AF0EE000A60EE200A9DED180AB6EED3
:10244000001A31EE401A9DED160A31EE400A60EE98
:10245000800A9DED0E0AB0EE001A60EE011A9DEDA5
:102460001A0A9DED1C1A30EE411AB0EE600A01EE18
:10247000810ADDED0D0AB0EE001A60EE811ADDED85
:10248000190A9DED1D1A70EE810A01EEA00A8DED6C
:10249000330A9DED0F0AF0EE000A20EE201A9DEDA2
:1024A0001A0ADDED1C0A30EE200A21EE000ADDEDED
:1024B0000E0AB0EE001A20EE811ADDED1B0AF6EED0
:1024C000001A71EEE01ADDED160A71EEE00A01EE77
:1024D000200ADDED0D0AB0EE001A60EE811ADDED86
:1024E000170A9DED1E1A70EEC10A01EEA00A8DEDCD
:1024F000320A9DED0F0AF0EE000A20EE201A9DED43
:10250000190ADDED1D0A30EE600A21EE000ADDED4C
:102510000E0AB0EE001A60EE811ADDED170A9DED8D
:102520001E1A70EE810A01EEA00ADDED0D0AB0EE72
:10253000001A19E084010020880100208C0100208D
:10254000900100200C640020D0010020C801002070
:102550000000FA44F8C1F93C35FA8E3CFA7E6ABCB8
:102560007493683F0000000020EE811ADDED1B0A25
:10257000F6EE001A71EEE01ADDED180A71EEE00ACF
:1025800001EE200A8DED310A9DED330A60EE000A5E
:102590009DED320A40EE000ACDED070A0798FEF7DE
:1025A00090FBCDE908019DED080B06F0A9FE8DED2D
:1025B0000A0B9DED0A0B51EC100BFEF7C5FB30909A
:1025C0009DED310A8DED2F0A9DED190ADDED1D0AF5
:1025D00030EE600AF0EE000A20EE200A8DED2E0AA1
:1025E0009DED1E0ADDED170A30EE200AF0EE000A1E
:1025F00020EE200A8DED2D0A9DED1F0ADDED1B0A50
:1026000070EE600A9DED180A70EEC00A9DED160A84
:1026100030EE800A8DED2C0A9DED300AF0EE000AB6
:1026200060EE200A9DED180AB6EE001A31EE401A4F
:102630009DED160A31EE400A60EE800A9DED2F0AEC
:10264000B0EE001A60EE011A9DED190A9DED1D1AFB
:1026500030EE411AB0EE600A01EE810A8DED2B0AD0
:102660009DED300AF0EE000A20EE201A9DED1A0AC8
:10267000DDED1C0A30EE600A61EE000A9DED2F0AC6
:10268000B0EE001A60EE011A9DED1E0A9DED171ABC
:1026900030EE011AB0EE600A01EE810A8DED2A0AD1
:1026A0009DED300AF0EE000A20EE201A9DED1D0A85
:1026B000DDED190A30EE200A61EE000A9DED2F0AC9
:1026C000B0EE001A20EE011A9DED1B0AF6EE001A7C
:1026D00071EEC01A9DED180A71EEC01AB0EE600AD4
:1026E00001EE210A8DED290ADDED110A9DED2C0A7E
:1026F00060EE800A9DED101A9DED2D0A41EE400A14
:102700009DED0E1A9DED290A21EE001ADDED0D1A40
:102710009DED2A0A01EEC01A30EE810A8DED280ADD
:10272000DDED100A9DED2E0A60EE800A9DED121A75
:102730009DED2C0A41EE400A9DED0D1A9DED2B0AF0
:1027400021EE001ADDED0F1A9DED290A01EEC01AE7
:1027500030EE810A8DED270ADDED120A9DED2D0A7E
:1027600060EE800A9DED111A9DED2E0A41EE400AA1
:102770009DED0F1A9DED2A0A61EE001A9DED0E1ACD
:102780009DED2B0A41EE401A30EEA10A8DED260A8E
:102790009DED150A20EE000ADDED140A00EEA00AF8
:1027A000DDED130A00EEA00A8DED070A0798FEF78B
:1027B00088FACDE908019DED080B06F0A1FD8DED2D
:1027C0000A0B9DED0A0B51EC100BFEF7BDFA34908D
:1027D0009DED340ADFEDFE0AB4EEE00AF1EE10FAE8
:1027E0007DD29DED280A5FEDA10A20EE200A8DED35
:1027F000030A0398FEF765FACDE904019DED240B69
:1028000053EC102B9DED040B51EC100BFEF73BF934
:10281000CDE90801EF480068FEF753FACDE906015B
:102820009DED080B53EC102B9DED060B51EC100B9E
:10283000FEF782F8CDE90A019DED0A0B51EC100B71
:10284000FEF782FAE34908609DED270A5FEDBB0AB7
:1028500020EE200A8DED030A0398FEF732FACDE947
:1028600004019DED240B53EC102B9DED040B51EC5A
:10287000100BFEF708F9CDE90801D7480068FEF70C
:1028800020FACDE906019DED080B53EC102B9DEDD0
:10289000060B51EC100BFEF74FF8CDE90A019DED48
:1028A0000A0B51EC100BFEF74FFACB4908609DED77
:1028B000260A5FEDD40A20EE200A8DED030A039864
:1028C000FEF7FFF9CDE904019DED240B53EC102B2D
:1028D0009DED040B51EC100BFEF7D5F800E049E03C
:1028E000CDE90801BD480068FEF7EBF9CDE9060126
:1028F0009DED080B53EC102B9DED060B51EC100BCE
:10290000FEF71AF8CDE90A019DED0A0B51EC100B08
:10291000FEF71AFAB14908609DED150ADDED280AA7
:10292000B0EE001A01EE200AAA48D0ED000A30EEFF
:10293000200A8DED150A9DED140ADDED270AB0EE93
:10294000001A01EE200AA448D0ED000A30EE200A59
:102950008DED140A9DED130ADDED260AB0EE001A86
:1029600001EE200A0846D0ED000A30EE200A8DED77
:10297000130A1DE09DED150ADDED280AB7EE001AD9
:1029800001EE200A8DED150A9DED140ADDED270AF2
:10299000B7EE001A01EE200A8DED140A9DED130A20
:1029A000DDED260AB7EE001A01EE200A8DED130ABE
:1029B0008B4890ED000AF1EE400A9DED150A20EEDD
:1029C000800A884890ED001ADDED140A01EE600AD5
:1029D000854890ED001ADDED130A01EE600A8DEDD9
:1029E000030A0398FEF76DF9CDE904019DED240B70
:1029F00053EC102B9DED040B51EC100BFEF743F83C
:102A0000CDE9080179480068FEF75BF9CDE90601D8
:102A10009DED080B53EC102B9DED060B51EC100BAC
:102A2000FDF78AFFCDE90A019DED0A0B51EC100B71
:102A3000FEF78AF923906D48D0ED000A9DED150A46
:102A400020EE800A674890ED001ADDED130A01EED2
:102A5000200A654890ED001ADDED140A01EE600AC7
:102A60008DED030A0398FEF72CF9CDE904019DEDE5
:102A7000240B53EC102B9DED040B51EC100BFEF7C7
:102A800002F8CDE9080156480068FEF71AF9CDE9C9
:102A900006019DED080B53EC102B9DED060B51EC40
:102AA000100BFDF749FFCDE90A019DED0A0B51EC32
:102AB000100BFEF749F922904C48D0ED000A9DED2D
:102AC000140A20EE800A464890ED001ADDED130A44
:102AD00001EE600A444890ED001ADDED150A01EEA2
:102AE000200A8DED030A0398FEF7EBF8CDE9040107
:102AF0009DED240B53EC102B9DED040B51EC100BB2
:102B0000FDF7C1FFCDE9080136480068FEF7D9F8A6
:102B1000CDE906019DED080B53EC102B9DED060B46
:102B200051EC100BFDF708FFCDE90A019DED0A0BF2
:102B300051EC100BFEF708F921902C48D0ED000A5B
:102B40009DED130A20EE800A254890ED001ADDED78
:102B5000140A01EE200A234890ED001ADDED150A53
:102B600001EE600A8DED030A0398FEF7AAF8CDE99D
:102B700004019DED240B53EC102B9DED040B51EC47
:102B8000100BFDF780FFCDE9080117480068FEF73C
:102B900098F8CDE906019DED080B53EC102B9DED47
:102BA000060B51EC100BFDF7C7FECDE90A019DEDB8
:102BB0000A0B51EC100BFEF7C7F820909DED230A8D
:102BC00060EE000A9DED220A40EE000A10E00000CF
:102BD0009CC4A03E780100207C01002080010020E0
:102BE000880100208C010020900100208401002039
:102BF0009DED210A40EE000A9DED200A40EE000AFC
:102C0000CDED0C0A9DED0C0A07F0DCFF8DED340ACA
:102C10009DED230ADDED340A20EE200AB04880ED58
:102C2000000A9DED220ADDED340A20EE200AAD48AF
:102C300080ED000A9DED210ADDED340A20EE200A28
:102C4000A94880ED000A9DED200ADDED340A20EE52
:102C5000200AA64880ED000AA54890ED000AA54884
:102C600080ED000AA04890ED000AF8EE000A20EE80
:102C7000200AD0ED000A20EE200A9C48D0ED000A80
:102C8000B0EE001A60EE810A90ED001A00EEC10A63
:102C9000F7EE000A30EE200A8DED010A0198FEF7EA
:102CA00010F8CDE904018F4890ED000AF0EE000A1B
:102CB00020EE200A8C48D0ED000A20EE200A884839
:102CC000D0ED000AB0EE001A60EE810A874890ED60
:102CD000001A00EE810A8DED010A0198FDF7F1FF5F
:102CE000CDE902019DED041B9DED020B06F034F9C8
:102CF0008DED060B9DED060B51EC100B81F00041A4
:102D00009FED7D0B53EC102BCDE908019DED080BD9
:102D100051EC100BFDF7B7FECDE90A019DED0A0B52
:102D200051EC100BFEF710F8714908606D4890EDFA
:102D3000000AF8EE000A20EE200A6C48D0ED000AE6
:102D400020EE200A6648D0ED000AB0EE001A60EED0
:102D5000810A654890ED001A00EE810A8DED030AA4
:102D60000398FDF7AEFFCDE904019DED040B05F0DE
:102D7000D7FD8DED060B9DED060B51EC100B81F090
:102D800000419FED5D0B53EC102BCDE908019DED4B
:102D9000080B51EC100BFDF776FECDE90A019DED15
:102DA0000A0B51EC100BFDF7CFFF554988604D48D9
:102DB00090ED000AF8EE000A20EE200AD0ED000A9D
:102DC00020EE200A4848D0ED000AB0EE001A60EE6E
:102DD000810A90ED001A00EEC10AF7EE000A30EE0B
:102DE000200A8DED030A0398FDF76BFFCDE906017C
:102DF0003D4890ED000AF0EE000A20EE200A3B4824
:102E0000D0ED000A20EE200A3548D0ED000AB0EEE1
:102E1000001A60EE810A334890ED001A00EE810A34
:102E20008DED030A0398FDF74CFFCDE904019DEDFC
:102E3000061B9DED040B06F08FF88DED080B9FED42
:102E40002E0B53EC102B9DED080B51EC100BFDF7E6
:102E50001AFECDE90A019DED0A0B51EC100BFDF7AE
:102E600073FF2749C860224890ED000A2148D0ED41
:102E7000000A30EE600ADFED230AB4EEE00AF1EE5C
:102E800010FA05DB20480068401E1F49086013E067
:102E9000174890ED000A1748D0ED000A30EE600A9E
:102EA000DFED1A0AB4EEE00AF1EE10FA04D8164883
:102EB0000068401C14490860134800684FF4B4715E
:102EC000484300EE100AB8EEC00A0948D0ED000AE7
:102ED00030EE200A0A4880ED040A35B000BD00003B
:102EE00084010020880100208C0100209001002036
:102EF000980100209401002000000000DCA54C4057
:102F0000946400200000A5439C0100200000A5C39C
:102F10002DE9F04104460E46154600272A46314663
:102F20003620FEF713FAAA1C31463620FEF7B6FB10
:102F30002A1D31463620FEF759FDAA1D314636209E
:102F4000FEF7FCFE002009E005EB4001497815F88A
:102F5000102041EA022124F81010401C0428F3DB61
:102F6000A788E088A080E780BDE8F08101460020C6
:102F700043E001F6741232F81020214B33F910307F
:102F8000D21AB2F5006F0FDD01F6741232F810207C
:102F9000A2F580521A4B33F81030D21A13B201F650
:102FA0009C1222F8103027E001F6741232F810203B
:102FB000134B33F91030D21A12F5006F0FDA01F605
:102FC000741232F8102002F580520D4B33F8103095
:102FD000D21A13B201F69C1222F810300CE001F65E
:102FE000741232F81020064B33F81030D21A13B294
:102FF00001F69C1222F81030401C0428B9DB7047FF
:10300000D0D60008034880ED000AC0ED010A80ED2B
:10301000021A70470C64002010B52DED048B9FED53
:103020003C0AB0EE408A9FED3A0AF0EE408A9FEDEE
:10303000380AB0EE409A002451E0364A911E881EAC
:1030400002F04BFC3348001FB0F9000000EE100AFC
:10305000B8EEC00ADFED300A80EE201AB0EE000AAA
:1030600061EE000A9FED2D1AB0EE480A00EE810ACB
:10307000B0EE408A2748001FB0F9020000EE100AA7
:10308000B8EEC00A9FED241AC0EE010AB0EE000AA5
:1030900060EE800A9FED211AB0EE680A00EE810A08
:1030A000F0EE408A1B48001FB0F9040000EE100A41
:1030B000B8EEC00A9FED181AC0EE010AB0EE000A81
:1030C00060EE800A9FED151AB0EE490A00EE810A03
:1030D000B0EE409A032007F037FE601CC4B2C82C43
:1030E000ABDB9FED0F0AC8EE000A0E48C0ED000AE8
:1030F0009FED0B0AC8EE800AC0ED010A9FED080A99
:10310000C9EE000AC0ED020ABDEC048B10BD000040
:103110000000000038640020000000470AE81C415D
:103120000000C8425C64002031B52DED060B2DED8A
:10313000108B94B004469DED281BB0EE410AF0EED2
:10314000610A9FEDED1B53EC112B51EC100BFDF7B9
:103150009AFC41EC180B9DED261BB0EE410AF0EEF7
:10316000610A9FEDE51B53EC112B51EC100BFDF7A1
:103170008AFCCDE900019DED241BB0EE410AF0EE82
:10318000610A9FEDDD1B53EC112B51EC100BFDF789
:103190007AFC41EC190BB0EE480AF0EE680A05F033
:1031A000DBFFB0EE40AAF0EE60AA9DED000B05F04B
:1031B000D3FFB0EE40BAF0EE60BA53EC1A2B51ECEC
:1031C0001B0BFDF760FCCDE90201B0EE480AF0EE02
:1031D000680A06F031F8B0EE40CAF0EE60CAB0EE10
:1031E000490AF0EE690A05F0B7FFB0EE40DAF0EEFA
:1031F00060DA53EC1C2B51EC1D0BFDF744FC41EC49
:103200001A0BB0EE480AF0EE680A05F0A5FFB0EE22
:1032100040CAF0EE60CA9DED000B06F00DF8B0EE6E
:1032200040EAF0EE60EAB0EE490AF0EE690A06F014
:1032300003F8B0EE40FAF0EE60FA53EC1E2B51ECBE
:103240001F0BFDF720FC41EC1D0B53EC1C2BFDF775
:103250001AFC41EC1B0B53EC1A2BFDF70EFCCDE9CD
:103260000401B0EE480AF0EE680A05F0E5FFB0EEA2
:1032700040CAF0EE60CAB0EE490AF0EE690A05F005
:10328000DBFFB0EE40DAF0EE60DA53EC1C2B51ECD1
:103290001D0BFDF7F8FB41EC1A0BB0EE480AF0EEFF
:1032A000680A05F059FFB0EE40CAF0EE60CA9DED25
:1032B000000B05F0C1FFB0EE40EAF0EE60EAB0EEC0
:1032C000490AF0EE690A05F047FFB0EE40FAF0EE69
:1032D00060FA53EC1E2B51EC1F0BFDF7D4FB41ECB5
:1032E0001D0B53EC1C2BFDF7CEFB41EC1B0B53ECE1
:1032F0001A2BFDF721FBCDE90601B0EE480AF0EEEE
:10330000680A05F099FFB0EE40AAF0EE60AA9DEDC4
:10331000000B05F021FFB0EE40BAF0EE60BA53ECBE
:103320001A2B51EC1B0BFDF7AEFBCDE90801B0EEFB
:10333000480AF0EE680A05F00FFFB0EE40CAF0EE62
:1033400060CAB0EE490AF0EE690A05F005FFB0EE7A
:1033500040DAF0EE60DA53EC1C2B51EC1D0BFDF75C
:1033600092FB41EC1A0BB0EE480AF0EE680A05F049
:1033700063FFB0EE40CAF0EE60CA9DED000B05F0B1
:103380005BFFB0EE40EAF0EE60EAB0EE490AF0EE24
:10339000690A05F051FFB0EE40FAF0EE60FA53EC26
:1033A0001E2B51EC1F0BFDF76EFB41EC1D0B53EC7C
:1033B0001C2BFDF768FB41EC1B0B53EC1A2BFDF7A4
:1033C000BBFACDE90A01B0EE480AF0EE680A05F052
:1033D000C3FEB0EE40CAF0EE60CAB0EE490AF0EEAD
:1033E000690A05F029FFB0EE40DAF0EE60DA53EC3E
:1033F0001C2B51EC1D0BFDF746FB41EC1A0BB0EEFC
:10340000480AF0EE680A05F017FFB0EE40CAF0EE89
:1034100060CA9DED000B05F00FFFB0EE40EAF0EE44
:1034200060EAB0EE490AF0EE690A05F095FEB0EEEA
:1034300040FAF0EE60FA53EC1E2B51EC1F0BFDF737
:1034400022FB41EC1D0B53EC1C2BFDF71CFB41EC4C
:103450001B0B53EC1A2BFDF710FBCDE90C019DED76
:10346000000B05F0E9FEB0EE40AAF0EE60AA51ECC8
:103470001A0B81F00041CDE90E019DED000B05F026
:103480006BFEB0EE40AAF0EE60AAB0EE490AF0EE94
:10349000690A05F0D1FEB0EE40BAF0EE60BA53EC26
:1034A0001A2B51EC1B0BFDF7EEFACDE910019DED47
:1034B000000B05F051FEB0EE40AAF0EE60AAB0EEAF
:1034C000490AF0EE690A05F047FEB0EE40BAF0EEA8
:1034D00060BA53EC1A2B51EC1B0BFDF7D4FACDE973
:1034E0001201482202A92046FDF702FA14B0BDECF1
:1034F000108B07B030BD0000000000A046DF913FF8
:1035000008B54FF4407003F087FDA82007F078F964
:103510004FF4612001F002FB01F070FF04F0F2F8BB
:103520000121334801F062FD1021314801F05CFDBA
:103530000421304801F058FD08212D4801F056FDC6
:103540004FF4FA7007F07EF908212A4801F04CFD8B
:103550000821274801F048FD4FF4FA7007F072F98E
:103560001021244801F042FD0821214801F03EFDD0
:103570004FF4FA7007F066F908211D4801F034FD98
:103580004FF4FA7007F05EF906F0FCFD09F0ECFE6E
:103590004FF4E13008F080FA532144F61F6003F045
:1035A000F7FA03F0BFFA002003230822194600901F
:1035B00000F024F80020032308221946009000F0B0
:1035C0006FF9FDF771FDFDF715FFFEF7BBF8FEF78C
:1035D00061FA08F057FA00BF02F072F90028FBD137
:1035E00001F05EFE06F01EFCFEF7D2FB08BD0000F7
:1035F000000C02400010024000BFFEE72DE9F04140
:103600008AB004460D4616461F46DDF8408001216B
:10361000022003F033FE0121480603F03FFE4FF481
:103620004070089002208DF8240000208DF82600BC
:1036300003208DF8250001208DF8270008A92D48CA
:1036400001F05EFC092208212A4801F0A1FC0922B0
:103650001146284801F09CFC00208DF81A008DF8D6
:103660001B008DF81C0001208DF81D0000208DF836
:103670001E008DF81F008DF816808DF817408DF80C
:1036800018608DF81950ADF8147005A91A4800F0AB
:10369000E0FB00208DF80E008DF80F0001208DF862
:1036A00010000020ADF80400ADF80600ADF80800E9
:1036B000ADF80A00ADF80C0001208DF8110001A84A
:1036C00000F03AFB012202210B4800F0B9FB142064
:1036D0008DF8000004208DF8010000208DF8020014
:1036E00001208DF80300684603F05AFC0AB0BDE8DB
:1036F000F0810000000402400064004010B5644AFC
:103700000021644800F02FFC0221624800F0F8FA22
:103710005F480068A0F2012030B1012805D00228DE
:1037200004D003287ED102E000BF00BF00BF58488C
:103730000078401E584908700846007800EB4000A9
:10374000564931F830005449097801EB4101534A98
:1037500002EBC101B1F91210401AB0F5805F10DD23
:103760004D48007800EB4000114601EBC000C068F6
:10377000401E4949097801EB410102EBC101C860D3
:1037800023E04548007800EB4000444931F8300020
:103790004149097801EB4101404A02EBC101B1F90D
:1037A0001210401A10F5805F0FDA3B48007800EBEA
:1037B0004000114601EBC000C068401C3649097842
:1037C00001EB410102EBC101C8603348007800EB16
:1037D0004000324931F8300000B22F49097801EB3E
:1037E00041012E4A02EBC10148822948007B284949
:1037F000C97A40EA01202849097801EB410122F801
:1038000031002348817B407B41EA002000B22249FD
:10381000097801EB410102EBC10148801C48017CA1
:10382000C07B00E031E041EA002000B21A4909788B
:1038300001EB410102EBC10188801548407C16492B
:10384000097801EB410102EBC101087412480078CC
:1038500000EB4000114601EBC000C068C0EB4030F7
:103860000D49097801EB410132F8311008440A4949
:10387000097801EB410102EBC10188600649097832
:10388000891DC8B200F0F8FF00E000BF00BF10BD06
:103890000458002000640040300100202C57002014
:1038A0002DE9F0418AB004460D4616461F46DDF864
:1038B00040800121022003F0E1FC0121880603F091
:1038C000EDFC4FF44050089002208DF824000020B9
:1038D0008DF8260003208DF8250001208DF82700A3
:1038E00008A9304801F00CFB09220C212D4801F0F9
:1038F0004FFB09220D212B4801F04AFB00208DF8D7
:103900001A008DF81B008DF81C0001208DF81D0099
:1039100000208DF81E008DF81F008DF816808DF8A0
:1039200017408DF818608DF81950ADF8147005A97E
:103930001D4800F08EFA0E208DF80E0000208DF844
:103940000F0001208DF810000020ADF80400ADF844
:103950000600ADF80800ADF80A000120ADF80C0033
:103960008DF8110001A800F0E7F9012210210E489E
:1039700000F066FA00224FF400410B4800F060FAB4
:1039800041208DF8000004208DF8010000208DF802
:10399000020001208DF80300684603F001FB0AB025
:1039A000BDE8F081000402400068004010B5884A7C
:1039B0000121884800F0D7FA0221864800F0A0F9DA
:1039C00083480068A0F2022007287BD2DFE800F0DD
:1039D00004FDFD4D4E4F50007F4800887E49B1F9EF
:1039E0001210401AB0F5805F05DD7B48C068401EAC
:1039F0007949C8600DE0784800887749B1F912101C
:103A0000401A10F5805F04DA7348C068401C7249A0
:103A1000C8607148008800B26F4948826C48007BDA
:103A20006B49C97A40EA01206B4908806848817B6C
:103A3000407B41EA002000B2674948806448017C2D
:103A4000C07B41EA002000B2634988806048407C26
:103A500008740846C068C0EB4030098808445E49D5
:103A600088600A2000F008FFB0E000BF00BF00BF80
:103A700057480078401F594908700846007800EB05
:103A80004000574931F830005449097801EB4101B1
:103A9000534A02EBC101B1F91210401AB0F5805F30
:103AA00011DD4E48007800EB4000114601EBC000EC
:103AB000C068401E4949097801EB410102EBC10190
:103AC000C86024E081E04548007800EB40004449AC
:103AD00031F830004149097801EB4101404A02EBDD
:103AE000C101B1F91210401A10F5805F0FDA3B489E
:103AF000007800EB4000114601EBC000C068401C9C
:103B00003649097801EB410102EBC101C860334835
:103B1000007800EB4000324931F8300000B22F4904
:103B2000097801EB41012E4A02EBC1014882284885
:103B3000007B2749C97A40EA01202849097801EB2E
:103B4000410122F831002248817B407B41EA00207C
:103B500000B22249097801EB410102EBC101488022
:103B60001B48017CC07B41EA002000B21B49097858
:103B700001EB410102EBC10188801548407C1749E7
:103B8000097801EB410102EBC10108741348007888
:103B900000EB4000114601EBC000C068C0EB4030B4
:103BA0000E49097801EB410132F8311008440B4904
:103BB000097801EB410102EBC101886007490978EE
:103BC000891CC8B200F058FE00E000BF00BF10BD65
:103BD0001858002000680040EC57002031010020F8
:103BE0008C57002010B586B004464FF40070019049
:103BF00000208DF80C008DF80D0008208DF80E00C7
:103C000000208DF80F0000218DF81010210A8DF88A
:103C100011108DF8124000218DF813108DF814103A
:103C20008DF815108DF8161001A9024800F013FA4E
:103C300006B010BD00680040F0B585B004460D46E2
:103C400016461F4640F2FF10009000208DF8080035
:103C50008DF8090008208DF80A00200A8DF80B0065
:103C6000E1B28DF80C10290A8DF80D10E9B28DF82B
:103C70000E10310A8DF80F10F1B28DF81010390ABC
:103C80008DF81110F9B28DF812106946024800F053
:103C9000E2F905B0F0BD000000680040F0B585B065
:103CA00004460D4616461F464FF400700090002053
:103CB0008DF808008DF8090008208DF80A00200A08
:103CC0008DF80B00E1B28DF80C10290A8DF80D105B
:103CD000E9B28DF80E10310A8DF80F10F1B28DF89F
:103CE0001010390A8DF81110F9B28DF812106946CA
:103CF000024800F0B0F905B0F0BD000000640040DB
:103D000000220C4B994202D10023836111E0C1F3E0
:103D1000130201F000730BB1C2600AE001F080638E
:103D20000BB1026105E001F000630BB1826000E0BD
:103D3000426070477000F03010B50021837A012294
:103D400002FA03F13D4A126842F001023B4B1A604D
:103D50003A4A1C3212688A43384B1C331A60027B81
:103D6000CAB9364A0C3212688A43344B0C331A6093
:103D70004288C38842EA0343304A4032847A42F898
:103D800034300288838842EA03432C4A4032847AE2
:103D900002EBC4025360027B012A19D1274A0C327C
:103DA00012680A43254B0C331A604288038842EAA2
:103DB0000343224A4032847A42F83430C2888388EE
:103DC00042EA03431D4A4032847A02EBC402536044
:103DD000C27A3AB9194A121D12688A43174B1B1D41
:103DE0001A6006E0154A121D12680A43134B1B1D88
:103DF0001A60028932B9114A143212688A430F4B91
:103E000014331A600289012A06D10C4A143212684E
:103E10000A430A4B14331A60427B012A06D1074A2F
:103E20001C3212680A43054B1C331A60034A12689D
:103E300022F00102014B1A6010BD00000066004034
:103E40001AB143690B43436102E043698B43436109
:103E5000704730B5024600200023146824F00204A5
:103E60001460146844F00104146000E05B1C5468A2
:103E700004F001041CB94FF6FF74A342F6D1546854
:103E800004F001040CB900206CE08C79012C04D101
:103E9000146844F08004146003E0146824F0800483
:103EA0001460CC79012C04D1146844F040041460EF
:103EB00003E0146824F0400414600C7A012C04D14F
:103EC000146844F02004146003E0146824F0200413
:103ED00014604C7A012C04D1146844F0100414606E
:103EE00003E0146824F0100414608C7A012C04D1CF
:103EF000146844F00804146003E0146824F0080413
:103F00001460CC7A012C04D1146844F004041460C9
:103F100003E0146824F0040414608C78A407CD78BE
:103F200044EA05640D7944EA05444D7944EA0554B0
:103F30000D886D1E2C43D461146824F001041460B4
:103F4000002300E05B1C546804F001041CB14FF630
:103F5000FF74A342F6D1546804F001040CB10020B0
:103F600000E0012030BD10B500F5D87303EB01135C
:103F70001B6803F004031372137A53B900F5D87366
:103F800003EB01131B6840F2FF7404EA5353136000
:103F900009E000F5D87303EB01131B686FF0604470
:103FA00004EAD303536000F5D87303EB01131B68D5
:103FB00003F00203537200F5D87303EB01135B683F
:103FC00003F00F03937200F5D87303EB01135B68E2
:103FD0001B0AD37400F5D87303EB01139B68D372EB
:103FE00000F5D87303EB01139B681C0A147300F5EA
:103FF000D87303EB01139B681C0C547300F5D87342
:1040000003EB01139B681B0E937300F5D87303EB4E
:104010000113DB68D37300F5D87303EB0113DB687E
:104020001C0A147400F5D87303EB0113DB681C0C35
:10403000547400F5D87303EB0113DB681B0E937403
:1040400021B9C36843F02003C36003E0036943F070
:104050002003036110BD10B502460020936803F0F1
:104060008063B3F1806F00D110E0936803F00063C8
:10407000B3F1006F01D1012008E0936803F0805391
:10408000B3F1805F01D1022000E00420042874D045
:1040900002F5C07303EB00131B6803F0010402F583
:1040A000C07303EB00131C600B7A7BB94B7A0C884E
:1040B00043EA445302F5C07404EB0014246823431C
:1040C00002F5C07404EB0014236010E00B7A4C6816
:1040D00043EAC4034C7A234302F5C07404EB001492
:1040E0002468234302F5C07404EB001423608B7A28
:1040F00003F00F038B7202F5C07303EB00135B68D0
:1041000023F00F0402F5C07303EB00135C6002F5AB
:10411000C07303EB00135B688C7A234302F5C07411
:1041200004EB001463608B7B1C064B7B44EA034466
:104130000B7B44EA0323CC7A234302F5C07404EBDF
:104140000014A3608B7C1C064B7C44EA03440B7C6C
:1041500044EA0323CC7B234302F5C07404EB001430
:10416000E36002F5C07303EB00131B6843F0010426
:1041700002F5C07303EB00131C6010BD70B52DED8C
:10418000068B0446122518E0681E04F5947101EBB5
:10419000C00090ED000B084600EBC50080ED000B61
:1041A000681E04F1080101EBC00090ED000B084609
:1041B00000EBC50080ED000B6D1E002DE4DC94EDDE
:1041C000000B84ED020B94ED022BB0EE420AF0EEF0
:1041D000620A384890ED002BB0EE421AF0EE621AF7
:1041E00053EC102B51EC110BFCF74DFC04F59472C1
:1041F00003C2012549E004F5947000EBC50090ED81
:10420000002BB0EE420AF0EE620A2B4800EBC5002C
:1042100090ED002BB0EE421AF0EE621A53EC102B28
:1042200051EC110BFCF72FFC41EC180B04F10800CA
:1042300000EBC50090ED002BB0EE420AF0EE620AF2
:104240001C4800EBC50090ED002BB0EE421AF0EEDA
:10425000621A53EC102B51EC110BFCF714FC41ECDF
:104260001A0B94ED4A1BB0EE410AF0EE610A53ECD2
:10427000102BFCF761FB41EC190B53EC182BFCF7EE
:10428000FCFB04F5947203C26D1C132DB3DB94ED9B
:104290004A0B84ED920B94ED921BB0EE410AF0EEC6
:1042A000610A51EC100BFCF74FFD00EE100ABDEC5B
:1042B000068B70BDA8D7000848D8000870B5054621
:1042C0000E4600245AE005F1200151F8241001EEB9
:1042D000101AB8EEC11AF0EE410A2A4931F9141049
:1042E00001EE101AB8EEC11AB0EE410A04EBC40197
:1042F00001EB0412244901EB820002F097FEB1EEBB
:10430000400A2148303800EB840080ED000A1E4945
:10431000303901EB840191ED001AF0EE410A1A499F
:10432000403951F82410B1F9021001EE101AB8EE1C
:10433000C11AB0EE410A04EBC40101EB04121349A7
:1043400001EB820002F072FE0E48583800EB840048
:1043500080ED000A05F1100050F8240000EE100A6C
:10436000B8EEC00AF1EE080A20EE200A06F1240099
:1043700000EB840080ED000A601CC4B2042CA2DBB8
:1043800070BD0000C8610020385D0020C85E0020BC
:104390000246094B9A4201D2084801E0064810380B
:1043A00001F000531BB1064B0B40C36002E0044B0D
:1043B0000B408360704700001064024000600240C0
:1043C0007D0F7D0F0246094B9A4201D2084801E059
:1043D0000648103801F000531BB1064B0B40C36078
:1043E00002E0044B0B408360704700001064024001
:1043F000006002407D0F7D0F21B1026842F0010292
:10440000026003E0026822F00102026070470000CF
:10441000016821F0010101600021016041608160BB
:10442000C1600161212141614A49884204D13D2195
:10443000484A103A91608CE046491831884205D1CB
:104440004FF47461434A103A916082E0414930313F
:10445000884205D14FF474113E4A103A916078E0D9
:104460003C494831884205D14FF07461394A103ACD
:1044700091606EE037496031884204D13649354A4F
:10448000103AD16065E033497831884204D133492C
:10449000304A103AD1605CE02E499031884204D114
:1044A0002F492C4A103AD16053E02A49A83188425A
:1044B00005D14FF03D51274A103AD16049E02949D2
:1044C000884204D13D21274A083A116041E025493C
:1044D0001831884205D14FF47461224A083A1160BC
:1044E00037E020493031884205D14FF474111D4A1C
:1044F000083A11602DE01B494831884205D14FF040
:104500007461184A083A116023E016496031884204
:1045100004D11149134A121F11601AE01149783170
:10452000884204D10D490F4A121F116011E00D4954
:104530009031884204D10A490A4A121F116008E0EA
:104540000849A831884204D14FF03D51054A121F55
:1045500011607047106002403D000020400F0020B5
:1045600000003D201064024021B1026842F4802224
:10457000026003E0026822F480220260704722B1E8
:10458000036843F40023036003E0036823F400237B
:104590000360016170470146486880B27047014678
:1045A00000200A6802F400220AB1012000E0002085
:1045B0007047000010B500220268134B1A40CC6807
:1045C0000B6823434C6923438C692343CC69234301
:1045D0000C6A23434C6A23438C6A23434C6B23436A
:1045E0008C6B23431A430260426922F00702D1E92F
:1045F0000B3423431A4342610B6943604B68836069
:104600008B68C36010BD00003F801CF041607047A4
:104610000021016041608160C1600161416181618F
:10462000C161016241628162C16201634163816370
:104630007047000070B504460D4694ED000AB5EED3
:10464000C00AF1EE10FA2BD194ED010AB5EEC00AC2
:10465000F1EE10FA24D14FF480617F4800F0C4FCE1
:1046600080217E4800F0C0FC80217D4800F0BCFC29
:104670004FF480717A4800F0B9FC4FF480717948AA
:1046800000F0B4FC0021784803F03DFC002176489E
:1046900003F03BFC00231A4619461846FFF7FEFAC2
:1046A000724890F8A809022876D141026A4800F0C1
:1046B0009DFC8021694800F099FC207B012804D1F1
:1046C000C102654800F092FC12E094F90C00401C15
:1046D00028B94FF40061604800F086FC08E04FF410
:1046E00080615D4800F080FC80215C4800F07CFC2B
:1046F000E07B012804D10102584800F075FC12E06B
:1047000094F90F00401C28B94FF48071534800F011
:104710006DFC08E04FF480614F4800F065FC80219B
:104720004E4800F061FC514890ED090ABCEEC00A09
:1047300010EE101A4C4803F0E6FB4C4890ED0A0AC4
:10474000BCEEC00A10EE101A474803F0DEFB484EDC
:1047500096ED030ABDEEC00A10EE106A33B2444E65
:1047600096ED020ABDEEC00A10EE106A32B2404E5B
:1047700096ED010ABDEEC00A10EE106A31B23C4E51
:10478000783E96ED1E0ABDEEC00A10EE106A30B2F9
:10479000FFF784FA5EE0FFE7344890F8A8090128A3
:1047A00033D181022C4800F01FFC80212B4800F0FF
:1047B0001BFC00212C4803F0A6FB00212A4803F033
:1047C000A4FB2B4E96ED030ABDEEC00A10EE106A54
:1047D00033B2274E96ED020ABDEEC00A10EE106A03
:1047E00032B2234E96ED010ABDEEC00A10EE106AF9
:1047F00031B21F4E783E96ED1E0ABDEEC00A10EE95
:10480000106A30B2FFF74AFA24E04FF48061124890
:1048100000F0EAFB8021114800F0E6FB80211048FF
:1048200000F0E2FB4FF480710D4800F0DFFB4FF425
:1048300080710C4800F0DAFB00210B4803F063FBA9
:104840000021094803F061FB00231A461946184667
:10485000FFF724FA70BD0000000C02400010024077
:104860000018024000000240000400402C580020C4
:10487000706100207047000010B5044604EBC400CE
:10488000454901EB8000006804EBC401424A02EB99
:104890008101486008F0C6FA04EBC4013E4A02EB0D
:1048A0008101086004EBC400114601EB8000C07C6C
:1048B000C0F38010B0B104EBC40001EB8000C07CF9
:1048C00020F0400004EBC40102EB8101C87404EB4A
:1048D000C400114601EB8000006804EBC40102EB48
:1048E0008101C86004EBC4002B4901EB80008069A2
:1048F00090B304EBC401284A02EB81018869804728
:1049000058B304EBC400244901EB8000C07C20F0C4
:104910002000203004EBC4011F4A02EB8101C8745F
:1049200004EBC400114601EB8000C07C20F0800045
:10493000803004EBC40102EB8101C87404EBC400B5
:10494000114601EB8000006A28B304EBC40102EBBE
:104950008101086A80471EE00FE0FFE704EBC40016
:104960000D4901EB8000C07C20F0800004EBC40105
:10497000094A02EB8101C8740DE004EBC40006494A
:1049800001EB8000C07C20F0800004EBC401024AEF
:1049900002EB8101C87410BD3062002010B592B0E6
:1049A00004464422584901A8FBF7A2FF00209FE0DB
:1049B00000EB400101AA32F8112000EBC001534B7B
:1049C00003EB8101098A62F30B0100EBC00203EBE8
:1049D0008202118200EB400101AA02EB41014A88E8
:1049E00000EBC00103EB8101B1F8111062F30F116C
:1049F00000EBC00203EB8202A2F8111000EB4001B1
:104A000001AA02EB4101097900EBC00203EB82022B
:104A1000D27C61F3440200EBC00103EB8101CA7454
:104A2000002100EBC00203EB8202916100EBC002A7
:104A300003EB8202D16100EBC00203EB8202116240
:104A400000EBC0011A4602EB8101C97C21F0010193
:104A5000491C00EBC00203EB8202D17400EBC001E1
:104A60001A4602EB8101C97C21F02001203100EBC4
:104A7000C00203EB8202D17400EBC0011A4602EBC4
:104A80008101C97C21F04001403100EBC00203EB01
:104A90008202D17400EBC0011A4602EB8101C97C8D
:104AA00021F08001803100EBC00203EB8202D1745F
:104AB0009FED170A10EE101A00EBC00203EB820202
:104AC000516100EBC0011A4602EB81010C6000EB62
:104AD000C00102EB81014C6000EBC00102EB8101DF
:104AE0008C6000EBC00102EB8101CC60411CC8B2BC
:104AF0000B28FFF65DAF07490448C163002101643C
:104B00000549416412B010BD5CD700083062002036
:104B100000000000157600087DBB000810B598B0B5
:104B2000044612A803F0C3FE10A803F05DFD0121A6
:104B3000084602F0A3FB0121102002F0CFFB012167
:104B4000880502F09BFB07220921684800F020FA43
:104B500007220A21654800F01BFA4FF4C060169046
:104B600002208DF85C0000208DF85D008DF85E005D
:104B700001208DF85F0016A95C4800F0C1F912947D
:104B80000020ADF84C00ADF84E00ADF85000ADF887
:104B900054000C20ADF8520012A9554803F014FE41
:104BA0000121880502F06AFB01224021504803F0F0
:104BB0002DFD012280214E4803F028FD4D48FFF7CE
:104BC00027FC6846FFF724FD4FF00060009048483E
:104BD000001D019048480290002003901E20049080
:104BE000002005904FF48060069000200790089008
:104BF00009904FF480300A9000200B900C900D909B
:104C00000E9069463B48FFF7D5FC3A487830FFF7ED
:104C1000FFFB6846FFF7FCFC4FF000600090344853
:104C2000001D01903548029040200390012004901F
:104C3000002005904FF480600690002007900890B7
:104C40004FF48070099040020A9000200B900C9065
:104C50000D900E90694627487830FFF7ABFC002294
:104C600025491E312348FFF78AFC01212148FFF71F
:104C70007BFC012240F224411D4803F080FD00200E
:104C8000ADF84000ADF842004FF40070ADF84400BC
:104C90000020ADF8460010A9154803F095FC25202A
:104CA0008DF83C0008208DF83D0000208DF83E0076
:104CB00001208DF83F000FA802F072F90022342184
:104CC000322007F03FFD0E490860002234213220D7
:104CD00007F038FD0B4908600121054803F08AFC04
:104CE00001210448FFF788FB18B010BD0000024006
:104CF0000010014040640240F40200203003002014
:104D0000180000201C0000200149086070470000C6
:104D10000C3C024070B504460A460026092502B93B
:104D200009E0012A01D1160205E0022A01D116028A
:104D300001E04FF4407600F09DF80546092D28D19A
:104D40001548006820F44070134908600846006860
:104D5000304308600846006820F0F8000860084604
:104D6000006844F0020108430B49086008460068E7
:104D700040F48030086000F07DF805460648006881
:104D800020F00200044908600846006820F0F8009E
:104D90000860284670BD0000103C024009201349FD
:104DA000096801F48031B1F5803F01D101201CE098
:104DB0000E49096801F0100109B1062015E00B4900
:104DC000096801F4807109B102200EE00749096801
:104DD00001F0EF0109B1072007E00449096801F07B
:104DE000020109B1082000E0092070470C3C024094
:104DF0000348006840F00040014908607047000027
:104E0000103C024030B502460C46092500F032F84D
:104E10000546092D17D10D48006820F440700B4954
:104E200008600846006808600846006840F0010015
:104E30000860147000F01EF805460448006820F071
:104E4000010002490860284630BD0000103C0240C5
:104E50000548006800F0004028B1044802490C39B8
:104E60000860034808607047103C02402301674512
:104E7000AB89EFCD08B509200090FFF78FFF0090B8
:104E800002E0FFF78BFF00909DF800000128F8D0AA
:104E90009DF8000008BD10B5FFF7DAFFF120FFF71D
:104EA00033FF01215820FFF735FFFFF7A1FF10BDA9
:104EB0000246054B002103E0585C5054481CC1B227
:104EC0003029F9DB0020704700000E0870B5054658
:104ED0000A4EFFF7E0FFFFF7BBFF002408E0E120E8
:104EE000FFF712FF295D3019FFF78CFF601CC4B279
:104EF000302CF4DBFFF77CFF002070BD00000E08B3
:104F0000F0B50A4600210023002400BF3DE0012542
:104F100005FA01F3156805EA03049C4234D10568DB
:104F20004F000326BE40B543056015794E00B540DD
:104F30000668354305601579012D02D01579022DDB
:104F400016D185684F000326BE40B543856055796C
:104F50004E00B540866835438560456801268E4021
:104F6000B5434560456896798E40B6B23543456095
:104F7000C5684F000326BE40B543C560D5794E00D5
:104F8000B540C6683543C560491C1029BFD3F0BD84
:104F9000F0B5002300244D07ED0E02FA05F3CE1004
:104FA00000F1200555F826504E07F70E0F26BE409B
:104FB000B543CF1000F1200646F82750CE1000F17F
:104FC000200555F8265045EA0304CE1000F12005CF
:104FD00045F82640F0BD0246002013690B400BB196
:104FE000012000E000207047418370470183704733
:104FF00010B52DED048B244A911E881E00F0C6FCCE
:1050000021480C38B0F9080000EE100AF8EEC00A8A
:105010001E48B0F9080000EE100AB8EEC00A30EEE3
:10502000C00AB0EE408A18480C38B0F90A0000EE09
:10503000100AF8EEC00A1548B0F90A0000EE100A8E
:10504000B8EEC00A30EEC00AF0EE408A0E480C38C6
:10505000B0F90C0000EE100AF8EEC00A0B48B0F9E7
:105060000C0000EE100AB8EEC00A30EEC00AB0EE36
:10507000409AB0EE491AF0EE680AB0EE480A00F025
:105080003BF8BDEC048B10BD406400204864002058
:1050900010B52DED088B05F093FE0446FBF7E5FDFA
:1050A00041EC180B4FF0E02040694FF0E021896996
:1050B000401A4FF47A7148434FF0E0214969B0FB40
:1050C000F1F42046FBF7D1FD9FED090B53EC102BBB
:1050D000FBF7D9FC53EC182BFBF72EFC41EC190B1A
:1050E000B0EE490AF0EE690ABDEC088B10BD000075
:1050F000FCA9F1D24D62503F10B52DED048BB0EEFE
:10510000408AF0EE608AB0EE419A18EE100AFBF782
:10511000D8FD134A03C218EE900AFBF7D2FD104ADD
:1051200002F5147203C219EE100AFBF7CAFD0C4A0D
:1051300002F5946203C20A48FFF720F8094880ED9F
:10514000040A0948FFF71AF8064880ED050A0748DF
:10515000FFF714F8034880ED060ABDEC048B10BD80
:10516000806C00200C640020D06E00202071002094
:1051700000BFFEE710B52DED088BB0EE408AF0EED3
:10518000608AB5EEC08AF1EE10FA3FDD18EE900AA3
:10519000FBF797FD41EC1B0BB0EE4B0AF0EE6B0AF0
:1051A00004F03EF8B0EE409AF0EE609A18EE100A65
:1051B000FBF787FD41EC1B0BB0EE4B0AF0EE6B0AE0
:1051C00004F02EF8B0EE40AAF0EE60AA53EC192BD2
:1051D00051EC1A0BFBF788FD18D218EE900AFBF77A
:1051E00070FD41EC1A0BB0EE4A0AF0EE6A0A04F0C8
:1051F00017F8B0EE409AF0EE609A51EC190BFBF7FD
:10520000A3FD00EE100ABDEC088B10BDB5EEC08A00
:10521000F1EE10FA41D218EE900AFBF752FD41EC84
:105220001B0BB0EE4B0AF0EE6B0A03F0F9FFB0EE89
:10523000409AF0EE609A18EE100AFBF742FD41EC3E
:105240001B0BB0EE4B0AF0EE6B0A03F0E9FFB0EE79
:1052500040AAF0EE60AA53EC192B51EC1A0BFBF7A5
:1052600043FD1AD218EE900AFBF72BFD41EC1B0B05
:10527000B0EE4B0AF0EE6B0A03F0D2FFB0EE40AA9C
:10528000F0EE60AA51EC1A0B81F0004141EC190BD1
:10529000FBF75AFD00EE100AB5E7B0EE480AB2E798
:1052A00010B5002424E0204A911E881E00F06EFBF9
:1052B0001D480C38B0F908001C49096808441B490E
:1052C000086019480C38B0F90A00194909680844FF
:1052D0001749086014480C38B0F90C0015490968E2
:1052E000084414490860032005F02EFD601CC4B278
:1052F000C82CD8DB0D480068C82190FBF1F000B243
:105300000D4908810A480068C82190FBF1F000B2FD
:105310000949488107480068C82190FBF1F000B2B4
:105320000549888110BD000040640020B8010020BC
:10533000BC010020C0010020486400203BE0FCF7D5
:105340009DFEFFF755FE05F003F81B4800F08CFBAF
:10535000FCF7F0FE194890ED040ADFED190A20EE83
:10536000200ABDEEC00A10EE100A00B2124914392C
:105370000880124890ED050ADFED110A20EE200AA0
:10538000BDEEC00A10EE100A00B248800B4890ED46
:10539000060ADFED0B0A20EE200ABDEEC00A10EE71
:1053A000100A00B28880012006F09EFE002006F060
:1053B000DDFC04490860C2E7A86400200C640020FA
:1053C000F8C1F93CB001002010E0102008498872B3
:1053D000012048720872074802F0E4FA002006F043
:1053E000C5FC05490860052006F07EFEEDE70000DB
:1053F0000064002000100140480100201CB501217C
:10540000082001F03BFF0121402001F037FF01217E
:10541000084601F033FF4FF4C070009001208DF872
:10542000040000208DF8060003208DF805000120FF
:105430008DF8070069463848FFF762FD4FF4807029
:10544000009001208DF8040000208DF80600032054
:105450008DF8050001208DF8070069462F48FFF7F9
:105460004FFD1920009001208DF8040000208DF8D8
:10547000060003208DF8050001208DF8070069461D
:105480002748FFF73DFD4FF40040009000208DF8C5
:10549000040001208DF8060003208DF8050001208E
:1054A0008DF8070069461D48FFF72AFD4FF480710B
:1054B0001B48FFF799FD4FF400711948FFF794FD61
:1054C0004FF480611648FFF78FFD4FF400611448D8
:1054D000FFF78AFD40211248FFF786FD8021104822
:1054E000FFF782FD10210E48FFF77EFD20210C48BA
:1054F000FFF77AFD04210A48FFF776FD08210848E6
:10550000FFF772FD01210648FFF76EFD02210448F6
:10551000FFF76AFD1CBD00000018024000000240B9
:10552000000C024010B5044694ED000ADFED430A7A
:10553000B4EEE00AF1EE10FA0EDD4FF4807140484F
:10554000FFF754FD80213F48FFF750FD4FF4807175
:105550003C48FFF74BFD0DE080213A48FFF744FD42
:105560004FF480713748FFF741FD4FF480713448A4
:10557000FFF73CFD94ED010ADFED300AB4EEE00ADE
:10558000F1EE10FA08DC94ED020ADFED2F0AB4EE1A
:10559000E00AF1EE10FA0EDD4FF480712948FFF7B2
:1055A00023FD4FF480712648FFF720FD8021254818
:1055B000FFF71CFD04E04FF480712248FFF716FD51
:1055C00094ED010ADFED210AB4EEE00AF1EE10FAE3
:1055D00008D394ED020ADFED1E0AB4EEE00AF1EE04
:1055E00010FA0ED24FF480711548FFF7FDFC8021B0
:1055F0001448FFF7FBFC4FF480711248FFF7F6FCEC
:1056000004E04FF480710E48FFF7F0FC94ED000ABF
:10561000DFED0E0AB4EEE00AF1EE10FA0DD24FF40F
:1056200080710748FFF7E0FC80210648FFF7DCFCAB
:105630004FF480710348FFF7D7FC10BD0000C8424B
:105640000000024000180240000048420000C8C2AA
:10565000000048C210B500247521012000F03CFA7A
:1056600004460A2005F070FB702C7DD180226B214E
:10567000012000F097FA0A2005F066FB00226B215A
:10568000012000F08FFA0A2005F05EFB0722682156
:10569000012000F087FA0A2005F056FB03226B2157
:1056A000012000F07FFA0A2005F04EFB00226C2159
:1056B000012000F077FA0A2005F046FB00221A21AB
:1056C000012000F06FFA0A2005F03EFB00221921AC
:1056D000012000F067FA0A2005F036FB00221A21AB
:1056E000012000F05FFA0A2005F02EFB10221B219A
:1056F000012000F057FA0A2005F026FB00221C21A9
:10570000012000F04FFA0A2005F01EFB012238218B
:10571000104600F047FA0A2005F016FB0122372157
:10572000104600F03FFA0A2005F00EFB0D2227215B
:10573000012000F037FA0A2005F006FB0D22672150
:10574000012000F02FFA0A2005F0FEFA0D22272191
:10575000012000F027FA0A2005F0F6FA01226B2159
:10576000104600F01FFA00E00BE00A2005F0ECFA0A
:1057700000226C21012000F015FA0A2005F0E4FA5D
:1057800001E0012010BD0020FCE710B500247521C8
:10579000022000F0A1F904460A2005F0D5FA702C89
:1057A0007DD180226B21022000F0FCF90A2005F057
:1057B000CBFA00226B21022000F0F4F90A2005F058
:1057C000C3FA07226821022000F0ECF90A2005F054
:1057D000BBFA03226B21022000F0E4F90A2005F055
:1057E000B3FA00226C21022000F0DCF90A2005F057
:1057F000ABFA00221A21022000F0D4F90A2005F0A9
:10580000A3FA00221921022000F0CCF90A2005F0A9
:105810009BFA00221A21022000F0C4F90A2005F0A8
:1058200093FA10221B21022000F0BCF90A2005F097
:105830008BFA00221C21022000F0B4F90A2005F0A6
:1058400083FA01223821022000F0ACF90A2005F089
:105850007BFA01223721022000F0A4F90A2005F08A
:1058600073FA0D222721022000F09CF90A2005F08E
:105870006BFA0D226721022000F094F90A2005F04E
:1058800063FA0D222721022000F08CF90A2005F08E
:105890005BFA01226B21022000F084F900E00BE0AA
:1058A0000A2005F051FA00226C21022000F07AF95A
:1058B0000A2005F049FA01E0012010BD0020FCE7B4
:1058C00010B500F097F9FFF7C5FE10B9FFF75DFFBF
:1058D00008B1012010BD0020FCE770B586B0044679
:1058E0000D46164604AB06223B21012000F01EF9AE
:1058F00010B1012006B070BD9DF811009DF8101088
:1059000040EA012000B2ADF804009DF813009DF8B4
:10591000121040EA012000B2ADF806009DF8150013
:105920009DF8141040EA012000B2ADF8080004AB65
:1059300006223B21022000F0F9F808B10120D9E746
:105940009DF811009DF8101040EA012000B2ADF85A
:105950000A009DF813009DF8121040EA012001B2E0
:10596000ADF80C109DF815009DF8141040EA0120C8
:1059700001B2ADF80E10BDF804002080BDF806009D
:105980002880BDF8080030800020B3E770B586B0ED
:1059900004460D46164604AB06224321012000F0C2
:1059A000C5F810B1012006B070BD9DF811009DF83A
:1059B000101040EA012000B2ADF804009DF8130079
:1059C0009DF8121040EA012000B2ADF806009DF8E3
:1059D00015009DF8141040EA012000B2ADF808004F
:1059E00004AB06224321022000F0A0F808B10120F8
:1059F000D9E79DF811009DF8101040EA012000B28F
:105A0000ADF80A009DF813009DF8121040EA01203D
:105A100001B2ADF80C109DF815009DF8141040EA85
:105A2000012001B2ADF80E10BDF90420BDF90C1033
:105A3000501800EBD071491009B22180BDF9061051
:105A4000BDF90A20881A00EBD071491009B22980EB
:105A5000BDF90820BDF90E10501800EBD0714910A7
:105A600009B2318000209EE730B52DED068B81B064
:105A700004466B4602224121012000F057F89DF8B0
:105A800001009DF8001040EA012005B22846FBF70E
:105A9000DBF841EC1A0B9FED0C0B53EC102BFBF7D2
:105AA00064F841EC190B9FED0A0B53EC102BFAF73D
:105AB00043FF41EC180BFBF747F92060002001B0D1
:105AC000BDEC068B30BD000052B81E85EBDD744086
:105AD0000000000000002A4070B504460D46012C6D
